{
  "contractName": "DecentralBank",
  "abi": [
    {
      "inputs": [
        {
          "internalType": "contract RWD",
          "name": "_rwd",
          "type": "address"
        },
        {
          "internalType": "contract MBR",
          "name": "_mbr",
          "type": "address"
        }
      ],
      "payable": false,
      "stateMutability": "nonpayable",
      "type": "constructor"
    },
    {
      "constant": true,
      "inputs": [
        {
          "internalType": "address",
          "name": "",
          "type": "address"
        }
      ],
      "name": "hasStaked",
      "outputs": [
        {
          "internalType": "bool",
          "name": "",
          "type": "bool"
        }
      ],
      "payable": false,
      "stateMutability": "view",
      "type": "function"
    },
    {
      "constant": true,
      "inputs": [
        {
          "internalType": "uint256",
          "name": "",
          "type": "uint256"
        }
      ],
      "name": "historyAddress",
      "outputs": [
        {
          "internalType": "address",
          "name": "",
          "type": "address"
        }
      ],
      "payable": false,
      "stateMutability": "view",
      "type": "function"
    },
    {
      "constant": true,
      "inputs": [
        {
          "internalType": "uint256",
          "name": "",
          "type": "uint256"
        }
      ],
      "name": "historyAmount",
      "outputs": [
        {
          "internalType": "uint256",
          "name": "",
          "type": "uint256"
        }
      ],
      "payable": false,
      "stateMutability": "view",
      "type": "function"
    },
    {
      "constant": true,
      "inputs": [
        {
          "internalType": "uint256",
          "name": "",
          "type": "uint256"
        }
      ],
      "name": "historyType",
      "outputs": [
        {
          "internalType": "uint256",
          "name": "",
          "type": "uint256"
        }
      ],
      "payable": false,
      "stateMutability": "view",
      "type": "function"
    },
    {
      "constant": true,
      "inputs": [
        {
          "internalType": "address",
          "name": "",
          "type": "address"
        }
      ],
      "name": "isStaking",
      "outputs": [
        {
          "internalType": "bool",
          "name": "",
          "type": "bool"
        }
      ],
      "payable": false,
      "stateMutability": "view",
      "type": "function"
    },
    {
      "constant": true,
      "inputs": [],
      "name": "mbr",
      "outputs": [
        {
          "internalType": "contract MBR",
          "name": "",
          "type": "address"
        }
      ],
      "payable": false,
      "stateMutability": "view",
      "type": "function"
    },
    {
      "constant": true,
      "inputs": [],
      "name": "name",
      "outputs": [
        {
          "internalType": "string",
          "name": "",
          "type": "string"
        }
      ],
      "payable": false,
      "stateMutability": "view",
      "type": "function"
    },
    {
      "constant": true,
      "inputs": [],
      "name": "owner",
      "outputs": [
        {
          "internalType": "address",
          "name": "",
          "type": "address"
        }
      ],
      "payable": false,
      "stateMutability": "view",
      "type": "function"
    },
    {
      "constant": true,
      "inputs": [],
      "name": "rwd",
      "outputs": [
        {
          "internalType": "contract RWD",
          "name": "",
          "type": "address"
        }
      ],
      "payable": false,
      "stateMutability": "view",
      "type": "function"
    },
    {
      "constant": true,
      "inputs": [
        {
          "internalType": "uint256",
          "name": "",
          "type": "uint256"
        }
      ],
      "name": "stakers",
      "outputs": [
        {
          "internalType": "address",
          "name": "",
          "type": "address"
        }
      ],
      "payable": false,
      "stateMutability": "view",
      "type": "function"
    },
    {
      "constant": true,
      "inputs": [
        {
          "internalType": "address",
          "name": "",
          "type": "address"
        }
      ],
      "name": "stakingBalance",
      "outputs": [
        {
          "internalType": "uint256",
          "name": "",
          "type": "uint256"
        }
      ],
      "payable": false,
      "stateMutability": "view",
      "type": "function"
    },
    {
      "constant": true,
      "inputs": [
        {
          "internalType": "address",
          "name": "",
          "type": "address"
        }
      ],
      "name": "stakingHistory",
      "outputs": [
        {
          "internalType": "uint256",
          "name": "",
          "type": "uint256"
        }
      ],
      "payable": false,
      "stateMutability": "view",
      "type": "function"
    },
    {
      "constant": true,
      "inputs": [],
      "name": "totalStaken",
      "outputs": [
        {
          "internalType": "uint256",
          "name": "",
          "type": "uint256"
        }
      ],
      "payable": false,
      "stateMutability": "view",
      "type": "function"
    },
    {
      "constant": false,
      "inputs": [
        {
          "internalType": "uint256",
          "name": "_amount",
          "type": "uint256"
        }
      ],
      "name": "depositTokens",
      "outputs": [],
      "payable": false,
      "stateMutability": "nonpayable",
      "type": "function"
    },
    {
      "constant": false,
      "inputs": [],
      "name": "issueTokens",
      "outputs": [],
      "payable": false,
      "stateMutability": "nonpayable",
      "type": "function"
    },
    {
      "constant": false,
      "inputs": [
        {
          "internalType": "uint256",
          "name": "_amount",
          "type": "uint256"
        }
      ],
      "name": "unstakeTokens",
      "outputs": [],
      "payable": false,
      "stateMutability": "nonpayable",
      "type": "function"
    },
    {
      "constant": false,
      "inputs": [],
      "name": "unstakeTokensall",
      "outputs": [],
      "payable": false,
      "stateMutability": "nonpayable",
      "type": "function"
    },
    {
      "constant": false,
      "inputs": [],
      "name": "getTotalstaken",
      "outputs": [
        {
          "internalType": "uint256",
          "name": "",
          "type": "uint256"
        }
      ],
      "payable": false,
      "stateMutability": "nonpayable",
      "type": "function"
    },
    {
      "constant": true,
      "inputs": [],
      "name": "getStakers",
      "outputs": [
        {
          "internalType": "address[]",
          "name": "",
          "type": "address[]"
        }
      ],
      "payable": false,
      "stateMutability": "view",
      "type": "function"
    },
    {
      "constant": true,
      "inputs": [],
      "name": "getAddress",
      "outputs": [
        {
          "internalType": "address[]",
          "name": "",
          "type": "address[]"
        }
      ],
      "payable": false,
      "stateMutability": "view",
      "type": "function"
    },
    {
      "constant": true,
      "inputs": [],
      "name": "getAmount",
      "outputs": [
        {
          "internalType": "uint256[]",
          "name": "",
          "type": "uint256[]"
        }
      ],
      "payable": false,
      "stateMutability": "view",
      "type": "function"
    },
    {
      "constant": true,
      "inputs": [],
      "name": "getType",
      "outputs": [
        {
          "internalType": "uint256[]",
          "name": "",
          "type": "uint256[]"
        }
      ],
      "payable": false,
      "stateMutability": "view",
      "type": "function"
    }
  ],
  "bytecode": "0x60806040526040518060400160405280600e81526020017f446563656e7472616c2042616e6b00000000000000000000000000000000000081525060009080519060200190620000519291906200016b565b503480156200005f57600080fd5b5060405162001b9538038062001b95833981810160405260408110156200008557600080fd5b81019080805190602001909291908051906020019092919050505081600360006101000a81548173ffffffffffffffffffffffffffffffffffffffff021916908373ffffffffffffffffffffffffffffffffffffffff16021790555080600260006101000a81548173ffffffffffffffffffffffffffffffffffffffff021916908373ffffffffffffffffffffffffffffffffffffffff16021790555033600160006101000a81548173ffffffffffffffffffffffffffffffffffffffff021916908373ffffffffffffffffffffffffffffffffffffffff16021790555050506200021a565b828054600181600116156101000203166002900490600052602060002090601f016020900481019282601f10620001ae57805160ff1916838001178555620001df565b82800160010185558215620001df579182015b82811115620001de578251825591602001919060010190620001c1565b5b509050620001ee9190620001f2565b5090565b6200021791905b8082111562000213576000816000905550600101620001f9565b5090565b90565b61196b806200022a6000396000f3fe608060405234801561001057600080fd5b50600436106101425760003560e01c806360ab5852116100b8578063c93c8f341161007c578063c93c8f34146105bd578063cedb952714610619578063d321fe291461065b578063dd49756e146106ba578063fd5e6dd1146106e8578063fdf348cf1461075657610142565b806360ab5852146104a55780636f49712b146104af5780638da5cb5b1461050b578063986b61ac14610555578063c4410ccd1461057357610142565b806335681dc11161010a57806335681dc1146102e957806338cc483114610357578063409d96aa146103b657806343352d61146103c057806345bc78ab1461041f578063608e4dd01461047757610142565b806305d743951461014757806306fdde031461019f57806315dae03e14610222578063160e0669146102815780631a8972d31461029f575b600080fd5b6101896004803603602081101561015d57600080fd5b81019080803573ffffffffffffffffffffffffffffffffffffffff169060200190929190505050610798565b6040518082815260200191505060405180910390f35b6101a76107b0565b6040518080602001828103825283818151815260200191508051906020019080838360005b838110156101e75780820151818401526020810190506101cc565b50505050905090810190601f1680156102145780820380516001836020036101000a031916815260200191505b509250505060405180910390f35b61022a61084e565b6040518080602001828103825283818151815260200191508051906020019060200280838360005b8381101561026d578082015181840152602081019050610252565b505050509050019250505060405180910390f35b6102896108a6565b6040518082815260200191505060405180910390f35b6102a76108ac565b604051808273ffffffffffffffffffffffffffffffffffffffff1673ffffffffffffffffffffffffffffffffffffffff16815260200191505060405180910390f35b610315600480360360208110156102ff57600080fd5b81019080803590602001909291905050506108d2565b604051808273ffffffffffffffffffffffffffffffffffffffff1673ffffffffffffffffffffffffffffffffffffffff16815260200191505060405180910390f35b61035f61090e565b6040518080602001828103825283818151815260200191508051906020019060200280838360005b838110156103a2578082015181840152602081019050610387565b505050509050019250505060405180910390f35b6103be61099c565b005b6103c8610c7d565b6040518080602001828103825283818151815260200191508051906020019060200280838360005b8381101561040b5780820151818401526020810190506103f0565b505050509050019250505060405180910390f35b6104616004803603602081101561043557600080fd5b81019080803573ffffffffffffffffffffffffffffffffffffffff169060200190929190505050610d0b565b6040518082815260200191505060405180910390f35b6104a36004803603602081101561048d57600080fd5b8101908080359060200190929190505050610d23565b005b6104ad611056565b005b6104f1600480360360208110156104c557600080fd5b81019080803573ffffffffffffffffffffffffffffffffffffffff1690602001909291905050506112b6565b604051808215151515815260200191505060405180910390f35b6105136112d6565b604051808273ffffffffffffffffffffffffffffffffffffffff1673ffffffffffffffffffffffffffffffffffffffff16815260200191505060405180910390f35b61055d6112fc565b6040518082815260200191505060405180910390f35b61057b6113b3565b604051808273ffffffffffffffffffffffffffffffffffffffff1673ffffffffffffffffffffffffffffffffffffffff16815260200191505060405180910390f35b6105ff600480360360208110156105d357600080fd5b81019080803573ffffffffffffffffffffffffffffffffffffffff1690602001909291905050506113d9565b604051808215151515815260200191505060405180910390f35b6106456004803603602081101561062f57600080fd5b81019080803590602001909291905050506113f9565b6040518082815260200191505060405180910390f35b61066361141a565b6040518080602001828103825283818151815260200191508051906020019060200280838360005b838110156106a657808201518184015260208101905061068b565b505050509050019250505060405180910390f35b6106e6600480360360208110156106d057600080fd5b8101908080359060200190929190505050611472565b005b610714600480360360208110156106fe57600080fd5b8101908080359060200190929190505050611878565b604051808273ffffffffffffffffffffffffffffffffffffffff1673ffffffffffffffffffffffffffffffffffffffff16815260200191505060405180910390f35b6107826004803603602081101561076c57600080fd5b81019080803590602001909291905050506118b4565b6040518082815260200191505060405180910390f35b60096020528060005260406000206000915090505481565b60008054600181600116156101000203166002900480601f0160208091040260200160405190810160405280929190818152602001828054600181600116156101000203166002900480156108465780601f1061081b57610100808354040283529160200191610846565b820191906000526020600020905b81548152906001019060200180831161082957829003601f168201915b505050505081565b6060600780548060200260200160405190810160405280929190818152602001828054801561089c57602002820191906000526020600020905b815481526020019060010190808311610888575b5050505050905090565b60045481565b600360009054906101000a900473ffffffffffffffffffffffffffffffffffffffff1681565b600581815481106108df57fe5b906000526020600020016000915054906101000a900473ffffffffffffffffffffffffffffffffffffffff1681565b6060600580548060200260200160405190810160405280929190818152602001828054801561099257602002820191906000526020600020905b8160009054906101000a900473ffffffffffffffffffffffffffffffffffffffff1673ffffffffffffffffffffffffffffffffffffffff1681526020019060010190808311610948575b5050505050905090565b6000600a60003373ffffffffffffffffffffffffffffffffffffffff1673ffffffffffffffffffffffffffffffffffffffff16815260200190815260200160002054905060008111610a39576040517f08c379a00000000000000000000000000000000000000000000000000000000081526004018080602001828103825260288152602001806118d66028913960400191505060405180910390fd5b600260009054906101000a900473ffffffffffffffffffffffffffffffffffffffff1673ffffffffffffffffffffffffffffffffffffffff1663a9059cbb33836040518363ffffffff1660e01b8152600401808373ffffffffffffffffffffffffffffffffffffffff1673ffffffffffffffffffffffffffffffffffffffff16815260200182815260200192505050602060405180830381600087803b158015610ae257600080fd5b505af1158015610af6573d6000803e3d6000fd5b505050506040513d6020811015610b0c57600080fd5b8101908080519060200190929190505050506000600a60003373ffffffffffffffffffffffffffffffffffffffff1673ffffffffffffffffffffffffffffffffffffffff168152602001908152602001600020819055506000600c60003373ffffffffffffffffffffffffffffffffffffffff1673ffffffffffffffffffffffffffffffffffffffff16815260200190815260200160002060006101000a81548160ff02191690831515021790555060053390806001815401808255809150509060018203906000526020600020016000909192909190916101000a81548173ffffffffffffffffffffffffffffffffffffffff021916908373ffffffffffffffffffffffffffffffffffffffff16021790555050600681908060018154018082558091505090600182039060005260206000200160009091929091909150555060076001908060018154018082558091505090600182039060005260206000200160009091929091909150555050565b60606008805480602002602001604051908101604052809291908181526020018280548015610d0157602002820191906000526020600020905b8160009054906101000a900473ffffffffffffffffffffffffffffffffffffffff1673ffffffffffffffffffffffffffffffffffffffff1681526020019060010190808311610cb7575b5050505050905090565b600a6020528060005260406000206000915090505481565b6000600a60003373ffffffffffffffffffffffffffffffffffffffff1673ffffffffffffffffffffffffffffffffffffffff16815260200190815260200160002054905081811015610dc0576040517f08c379a00000000000000000000000000000000000000000000000000000000081526004018080602001828103825260398152602001806118fe6039913960400191505060405180910390fd5b600260009054906101000a900473ffffffffffffffffffffffffffffffffffffffff1673ffffffffffffffffffffffffffffffffffffffff1663a9059cbb33846040518363ffffffff1660e01b8152600401808373ffffffffffffffffffffffffffffffffffffffff1673ffffffffffffffffffffffffffffffffffffffff16815260200182815260200192505050602060405180830381600087803b158015610e6957600080fd5b505af1158015610e7d573d6000803e3d6000fd5b505050506040513d6020811015610e9357600080fd5b81019080805190602001909291905050505081600a60003373ffffffffffffffffffffffffffffffffffffffff1673ffffffffffffffffffffffffffffffffffffffff168152602001908152602001600020600082825403925050819055506000600a60003373ffffffffffffffffffffffffffffffffffffffff1673ffffffffffffffffffffffffffffffffffffffff168152602001908152602001600020541415610f93576000600c60003373ffffffffffffffffffffffffffffffffffffffff1673ffffffffffffffffffffffffffffffffffffffff16815260200190815260200160002060006101000a81548160ff0219169083151502179055505b60053390806001815401808255809150509060018203906000526020600020016000909192909190916101000a81548173ffffffffffffffffffffffffffffffffffffffff021916908373ffffffffffffffffffffffffffffffffffffffff1602179055505060068290806001815401808255809150509060018203906000526020600020016000909192909190915055506007600190806001815401808255809150509060018203906000526020600020016000909192909190915055505050565b600160009054906101000a900473ffffffffffffffffffffffffffffffffffffffff1673ffffffffffffffffffffffffffffffffffffffff163373ffffffffffffffffffffffffffffffffffffffff1614611119576040517f08c379a00000000000000000000000000000000000000000000000000000000081526004018080602001828103825260188152602001807f63616c6c6572206d75737420626520746865206f776e6572000000000000000081525060200191505060405180910390fd5b60008090505b6008805490508110156112b35760006008828154811061113b57fe5b9060005260206000200160009054906101000a900473ffffffffffffffffffffffffffffffffffffffff1690506000600a8060008473ffffffffffffffffffffffffffffffffffffffff1673ffffffffffffffffffffffffffffffffffffffff16815260200190815260200160002054816111b257fe5b04905060008111156112a457600360009054906101000a900473ffffffffffffffffffffffffffffffffffffffff1673ffffffffffffffffffffffffffffffffffffffff1663a9059cbb83836040518363ffffffff1660e01b8152600401808373ffffffffffffffffffffffffffffffffffffffff1673ffffffffffffffffffffffffffffffffffffffff16815260200182815260200192505050602060405180830381600087803b15801561126757600080fd5b505af115801561127b573d6000803e3d6000fd5b505050506040513d602081101561129157600080fd5b8101908080519060200190929190505050505b5050808060010191505061111f565b50565b600c6020528060005260406000206000915054906101000a900460ff1681565b600160009054906101000a900473ffffffffffffffffffffffffffffffffffffffff1681565b600080600090505b6008805490508110156113aa5760006008828154811061132057fe5b9060005260206000200160009054906101000a900473ffffffffffffffffffffffffffffffffffffffff169050600a60008273ffffffffffffffffffffffffffffffffffffffff1673ffffffffffffffffffffffffffffffffffffffff16815260200190815260200160002054600460008282540192505081905550508080600101915050611304565b50600454905090565b600260009054906101000a900473ffffffffffffffffffffffffffffffffffffffff1681565b600b6020528060005260406000206000915054906101000a900460ff1681565b6006818154811061140657fe5b906000526020600020016000915090505481565b6060600680548060200260200160405190810160405280929190818152602001828054801561146857602002820191906000526020600020905b815481526020019060010190808311611454575b5050505050905090565b600081116114e8576040517f08c379a000000000000000000000000000000000000000000000000000000000815260040180806020018281038252601d8152602001807f616d6f756e742063616e206e6f74206265206c657373207468616e203000000081525060200191505060405180910390fd5b600260009054906101000a900473ffffffffffffffffffffffffffffffffffffffff1673ffffffffffffffffffffffffffffffffffffffff166323b872dd3330846040518463ffffffff1660e01b8152600401808473ffffffffffffffffffffffffffffffffffffffff1673ffffffffffffffffffffffffffffffffffffffff1681526020018373ffffffffffffffffffffffffffffffffffffffff1673ffffffffffffffffffffffffffffffffffffffff1681526020018281526020019350505050602060405180830381600087803b1580156115c557600080fd5b505af11580156115d9573d6000803e3d6000fd5b505050506040513d60208110156115ef57600080fd5b81019080805190602001909291905050505080600a60003373ffffffffffffffffffffffffffffffffffffffff1673ffffffffffffffffffffffffffffffffffffffff16815260200190815260200160002060008282540192505081905550600b60003373ffffffffffffffffffffffffffffffffffffffff1673ffffffffffffffffffffffffffffffffffffffff16815260200190815260200160002060009054906101000a900460ff166117065760083390806001815401808255809150509060018203906000526020600020016000909192909190916101000a81548173ffffffffffffffffffffffffffffffffffffffff021916908373ffffffffffffffffffffffffffffffffffffffff160217905550505b6001600c60003373ffffffffffffffffffffffffffffffffffffffff1673ffffffffffffffffffffffffffffffffffffffff16815260200190815260200160002060006101000a81548160ff0219169083151502179055506001600b60003373ffffffffffffffffffffffffffffffffffffffff1673ffffffffffffffffffffffffffffffffffffffff16815260200190815260200160002060006101000a81548160ff02191690831515021790555060053390806001815401808255809150509060018203906000526020600020016000909192909190916101000a81548173ffffffffffffffffffffffffffffffffffffffff021916908373ffffffffffffffffffffffffffffffffffffffff16021790555050600681908060018154018082558091505090600182039060005260206000200160009091929091909150555060076000908060018154018082558091505090600182039060005260206000200160009091929091909150555050565b6008818154811061188557fe5b906000526020600020016000915054906101000a900473ffffffffffffffffffffffffffffffffffffffff1681565b600781815481106118c157fe5b90600052602060002001600091509050548156fe7374616b696e672062616c616e63652063616e6e6f74206265206c657373207468616e207a65726f7374616b696e672062616c616e63652063616e6e6f74206265206c657373207468616e2074686520616d6f756e74206f6620756e7374616b65a265627a7a72315820c718b5f4c1d5d10f18dbcb5028558b53c7759e4c56e1c7394007f3b516c3bd1764736f6c63430005110032",
  "source": "pragma solidity ^0.5.0;\nimport './RWD.sol';\nimport './MBR.sol';\n// get other contracts by using import\n\ncontract DecentralBank {\n    string public name = 'Decentral Bank';\n    address public owner;\n    MBR public mbr;\n    RWD public rwd;\n    uint public totalStaken;\n    // define tehter and rwd variables as public var\n\n    address[] public historyAddress;\n    uint256[] public historyAmount;\n    uint[] public historyType;\n\n    address[] public stakers;\n    // who staked\n\n    mapping (address => uint256) public stakingHistory;\n    // to track the coin staking history\n\n    mapping (address => uint256) public stakingBalance;\n    // to track the amount of staking tokens according to the addresses\n\n    mapping (address => bool) public hasStaked;\n    // to track whether have staked or have not\n\n    mapping (address => bool) public isStaking;\n    // to track customer is staking or not currently\n\n    constructor(RWD _rwd, MBR _mbr) public {\n        rwd = _rwd;\n        mbr = _mbr;\n        // define _rwd and _mbr argument as var / each rwed and mbr\n        owner = msg.sender;\n        //to control who give rwd tokens\n    }\n\n    function depositTokens(uint _amount) public {\n        // when user want to stake their tokens, use this function \n        \n        require(_amount > 0,'amount can not be less than 0');\n        // - or 0 amount can not stake\n\n        mbr.transferFrom(msg.sender, address(this), _amount);\n        /* msg.sender:customer, address(this):decentralBank address, amount of money \n        the third party is needed thus we use transferFrom function from MBR contract*/\n        stakingBalance[msg.sender] += _amount;\n        // update stakingBalance, plus how customer allow to transfer staking tokens\n\n        // if msg.sender is the first staking time, we record it\n        if(!hasStaked[msg.sender]) {\n            stakers.push(msg.sender);\n            // we pusth msg.sender address to the array(stakers)\n        }\n\n        isStaking[msg.sender] = true;\n        hasStaked[msg.sender] = true;\n        // set the value true\n\n        historyAddress.push(msg.sender);\n        historyAmount.push(_amount);\n        historyType.push(0);\n    }\n\n    //rwd token for staking\n    function issueTokens() public {\n        require(msg.sender == owner, 'caller must be the owner');\n        // only owner can control rwd tokens\n\n        for (uint i=0; i<stakers.length; i++) {\n        // repeat until number of stakers\n            address recipient = stakers[i];\n            // get ith staker's address\n            uint balance = stakingBalance[recipient] / 10;\n            // use balance variable as amount of how much they staked divided with 9 \n            if(balance >0) {\n            rwd.transfer(recipient, balance);\n            // staker's address and amount of rwd tokens\n            }\n            // only transfer over zero because of gas fee\n        }\n\n    }\n    \n    function unstakeTokens(uint _amount) public {\n        uint balance = stakingBalance[msg.sender];\n        // get how much customer staked\n\n        require(balance >= _amount, 'staking balance cannot be less than the amount of unstake');\n        // if balance is less than zero we do not need to transfer\n        \n        mbr.transfer(msg.sender, _amount);\n        // to customer, about amount\n\n        stakingBalance[msg.sender] -= _amount;\n        // record amount of unstake\n\n        if(stakingBalance[msg.sender] == 0) {\n        isStaking[msg.sender] = false;\n        // change the state of currently staking\n        }\n\n        historyAddress.push(msg.sender);\n        historyAmount.push(_amount);\n        historyType.push(1);\n    }\n\n    // unstake all version\n    function unstakeTokensall() public {\n        uint balance = stakingBalance[msg.sender];\n        // get how much customer staked\n\n        require(balance > 0, 'staking balance cannot be less than zero');\n        // if balance is less than zero we do not need to transfer\n        \n        mbr.transfer(msg.sender, balance);\n        // to customer, about balance\n\n        stakingBalance[msg.sender] = 0;\n        // how abount customer can choose amount of unstake?\n\n        isStaking[msg.sender] = false;\n        // change the state of currently staking\n\n        historyAddress.push(msg.sender);\n        historyAmount.push(balance);\n        historyType.push(1);\n    }\n\n    function getTotalstaken() public returns(uint) {\n\n        for (uint i=0; i<stakers.length; i++) {\n        // repeat until number of stakers\n            address recipient = stakers[i];\n            // get ith staker's address\n            totalStaken += stakingBalance[recipient];\n            }\n        return totalStaken;\n    }\n\n    function getStakers() public view returns(address[] memory) {\n        return stakers;\n    }\n\n    function getAddress() public view returns(address[] memory) {\n        return historyAddress; \n    }\n\n    function getAmount() public view returns(uint[] memory) {\n        return historyAmount; \n    }\n\n    function getType() public view returns(uint[] memory) {\n        return historyType; \n    }\n}",
  "sourcePath": "C:\\Users\\hyean\\Desktop\\defi-staking-web\\src\\contracts\\DecentralBank.sol",
  "compiler": {
    "name": "solc",
    "version": "0.5.17+commit.d19bba13.Emscripten.clang"
  },
  "schemaVersion": "3.4.11",
  "updatedAt": "2023-02-01T06:45:29.596Z",
  "networkType": "ethereum",
  "devdoc": {
    "methods": {}
  },
  "userdoc": {
    "methods": {}
  }
}